{
  "_format": "hh-sol-artifact-1",
  "contractName": "SafeMoonLikeToken",
  "sourceName": "contracts/SafeMoonLikeToken.sol",
  "abi": [
    {
      "inputs": [
        {
          "internalType": "address",
          "name": "_uniswapRouter",
          "type": "address"
        },
        {
          "internalType": "contract IWETHHolder",
          "name": "_holder",
          "type": "address"
        }
      ],
      "stateMutability": "nonpayable",
      "type": "constructor"
    },
    {
      "inputs": [
        {
          "internalType": "address",
          "name": "spender",
          "type": "address"
        },
        {
          "internalType": "uint256",
          "name": "allowance",
          "type": "uint256"
        },
        {
          "internalType": "uint256",
          "name": "needed",
          "type": "uint256"
        }
      ],
      "name": "ERC20InsufficientAllowance",
      "type": "error"
    },
    {
      "inputs": [
        {
          "internalType": "address",
          "name": "sender",
          "type": "address"
        },
        {
          "internalType": "uint256",
          "name": "balance",
          "type": "uint256"
        },
        {
          "internalType": "uint256",
          "name": "needed",
          "type": "uint256"
        }
      ],
      "name": "ERC20InsufficientBalance",
      "type": "error"
    },
    {
      "inputs": [
        {
          "internalType": "address",
          "name": "approver",
          "type": "address"
        }
      ],
      "name": "ERC20InvalidApprover",
      "type": "error"
    },
    {
      "inputs": [
        {
          "internalType": "address",
          "name": "receiver",
          "type": "address"
        }
      ],
      "name": "ERC20InvalidReceiver",
      "type": "error"
    },
    {
      "inputs": [
        {
          "internalType": "address",
          "name": "sender",
          "type": "address"
        }
      ],
      "name": "ERC20InvalidSender",
      "type": "error"
    },
    {
      "inputs": [
        {
          "internalType": "address",
          "name": "spender",
          "type": "address"
        }
      ],
      "name": "ERC20InvalidSpender",
      "type": "error"
    },
    {
      "inputs": [],
      "name": "EnforcedPause",
      "type": "error"
    },
    {
      "inputs": [],
      "name": "ExpectedPause",
      "type": "error"
    },
    {
      "inputs": [
        {
          "internalType": "address",
          "name": "owner",
          "type": "address"
        }
      ],
      "name": "OwnableInvalidOwner",
      "type": "error"
    },
    {
      "inputs": [
        {
          "internalType": "address",
          "name": "account",
          "type": "address"
        }
      ],
      "name": "OwnableUnauthorizedAccount",
      "type": "error"
    },
    {
      "anonymous": false,
      "inputs": [
        {
          "indexed": true,
          "internalType": "address",
          "name": "owner",
          "type": "address"
        },
        {
          "indexed": true,
          "internalType": "address",
          "name": "spender",
          "type": "address"
        },
        {
          "indexed": false,
          "internalType": "uint256",
          "name": "value",
          "type": "uint256"
        }
      ],
      "name": "Approval",
      "type": "event"
    },
    {
      "anonymous": false,
      "inputs": [
        {
          "indexed": true,
          "internalType": "address",
          "name": "liquidityPool",
          "type": "address"
        }
      ],
      "name": "LiquidityPoolCreated",
      "type": "event"
    },
    {
      "anonymous": false,
      "inputs": [
        {
          "indexed": true,
          "internalType": "address",
          "name": "previousOwner",
          "type": "address"
        },
        {
          "indexed": true,
          "internalType": "address",
          "name": "newOwner",
          "type": "address"
        }
      ],
      "name": "OwnershipTransferred",
      "type": "event"
    },
    {
      "anonymous": false,
      "inputs": [
        {
          "indexed": false,
          "internalType": "address",
          "name": "account",
          "type": "address"
        }
      ],
      "name": "Paused",
      "type": "event"
    },
    {
      "anonymous": false,
      "inputs": [
        {
          "indexed": false,
          "internalType": "address",
          "name": "from",
          "type": "address"
        },
        {
          "indexed": false,
          "internalType": "uint256",
          "name": "amount",
          "type": "uint256"
        }
      ],
      "name": "ReceivedTokens",
      "type": "event"
    },
    {
      "anonymous": false,
      "inputs": [
        {
          "indexed": true,
          "internalType": "address",
          "name": "holder",
          "type": "address"
        },
        {
          "indexed": false,
          "internalType": "uint256",
          "name": "amount",
          "type": "uint256"
        }
      ],
      "name": "ReflectionsClaimed",
      "type": "event"
    },
    {
      "anonymous": false,
      "inputs": [
        {
          "indexed": false,
          "internalType": "uint256",
          "name": "amount",
          "type": "uint256"
        }
      ],
      "name": "ReflectionsDistributed",
      "type": "event"
    },
    {
      "anonymous": false,
      "inputs": [
        {
          "indexed": false,
          "internalType": "uint256",
          "name": "liquidityAllocation",
          "type": "uint256"
        },
        {
          "indexed": false,
          "internalType": "uint256",
          "name": "reflectionAllocation",
          "type": "uint256"
        }
      ],
      "name": "TaxAllocationsUpdated",
      "type": "event"
    },
    {
      "anonymous": false,
      "inputs": [
        {
          "indexed": false,
          "internalType": "uint256",
          "name": "buyTax",
          "type": "uint256"
        },
        {
          "indexed": false,
          "internalType": "uint256",
          "name": "sellTax",
          "type": "uint256"
        }
      ],
      "name": "TaxesUpdated",
      "type": "event"
    },
    {
      "anonymous": false,
      "inputs": [
        {
          "indexed": true,
          "internalType": "address",
          "name": "from",
          "type": "address"
        },
        {
          "indexed": true,
          "internalType": "address",
          "name": "to",
          "type": "address"
        },
        {
          "indexed": false,
          "internalType": "uint256",
          "name": "value",
          "type": "uint256"
        }
      ],
      "name": "Transfer",
      "type": "event"
    },
    {
      "anonymous": false,
      "inputs": [
        {
          "indexed": false,
          "internalType": "address",
          "name": "account",
          "type": "address"
        }
      ],
      "name": "Unpaused",
      "type": "event"
    },
    {
      "stateMutability": "payable",
      "type": "fallback"
    },
    {
      "inputs": [],
      "name": "MINIMUM_HOLDING_FOR_REFLECTION",
      "outputs": [
        {
          "internalType": "uint256",
          "name": "",
          "type": "uint256"
        }
      ],
      "stateMutability": "view",
      "type": "function"
    },
    {
      "inputs": [
        {
          "internalType": "address",
          "name": "owner",
          "type": "address"
        },
        {
          "internalType": "address",
          "name": "spender",
          "type": "address"
        }
      ],
      "name": "allowance",
      "outputs": [
        {
          "internalType": "uint256",
          "name": "",
          "type": "uint256"
        }
      ],
      "stateMutability": "view",
      "type": "function"
    },
    {
      "inputs": [
        {
          "internalType": "address",
          "name": "spender",
          "type": "address"
        },
        {
          "internalType": "uint256",
          "name": "value",
          "type": "uint256"
        }
      ],
      "name": "approve",
      "outputs": [
        {
          "internalType": "bool",
          "name": "",
          "type": "bool"
        }
      ],
      "stateMutability": "nonpayable",
      "type": "function"
    },
    {
      "inputs": [
        {
          "internalType": "address",
          "name": "account",
          "type": "address"
        }
      ],
      "name": "balanceOf",
      "outputs": [
        {
          "internalType": "uint256",
          "name": "",
          "type": "uint256"
        }
      ],
      "stateMutability": "view",
      "type": "function"
    },
    {
      "inputs": [],
      "name": "buyTax",
      "outputs": [
        {
          "internalType": "uint256",
          "name": "",
          "type": "uint256"
        }
      ],
      "stateMutability": "view",
      "type": "function"
    },
    {
      "inputs": [
        {
          "internalType": "address",
          "name": "holder",
          "type": "address"
        }
      ],
      "name": "calculateClaimable",
      "outputs": [
        {
          "internalType": "uint256",
          "name": "",
          "type": "uint256"
        }
      ],
      "stateMutability": "view",
      "type": "function"
    },
    {
      "inputs": [
        {
          "internalType": "address",
          "name": "_receiver",
          "type": "address"
        }
      ],
      "name": "claimReflections",
      "outputs": [],
      "stateMutability": "nonpayable",
      "type": "function"
    },
    {
      "inputs": [
        {
          "internalType": "address",
          "name": "",
          "type": "address"
        }
      ],
      "name": "claimableReflections",
      "outputs": [
        {
          "internalType": "uint256",
          "name": "",
          "type": "uint256"
        }
      ],
      "stateMutability": "view",
      "type": "function"
    },
    {
      "inputs": [],
      "name": "decimals",
      "outputs": [
        {
          "internalType": "uint8",
          "name": "",
          "type": "uint8"
        }
      ],
      "stateMutability": "view",
      "type": "function"
    },
    {
      "inputs": [
        {
          "internalType": "address",
          "name": "account",
          "type": "address"
        },
        {
          "internalType": "bool",
          "name": "excluded",
          "type": "bool"
        }
      ],
      "name": "excludeFromFees",
      "outputs": [],
      "stateMutability": "nonpayable",
      "type": "function"
    },
    {
      "inputs": [],
      "name": "liquidityAllocation",
      "outputs": [
        {
          "internalType": "uint256",
          "name": "",
          "type": "uint256"
        }
      ],
      "stateMutability": "view",
      "type": "function"
    },
    {
      "inputs": [],
      "name": "liquidityPool",
      "outputs": [
        {
          "internalType": "address",
          "name": "",
          "type": "address"
        }
      ],
      "stateMutability": "view",
      "type": "function"
    },
    {
      "inputs": [],
      "name": "name",
      "outputs": [
        {
          "internalType": "string",
          "name": "",
          "type": "string"
        }
      ],
      "stateMutability": "view",
      "type": "function"
    },
    {
      "inputs": [
        {
          "internalType": "address",
          "name": "from",
          "type": "address"
        },
        {
          "internalType": "uint256",
          "name": "amount",
          "type": "uint256"
        }
      ],
      "name": "onERC20Receive",
      "outputs": [
        {
          "internalType": "bool",
          "name": "",
          "type": "bool"
        }
      ],
      "stateMutability": "nonpayable",
      "type": "function"
    },
    {
      "inputs": [],
      "name": "owner",
      "outputs": [
        {
          "internalType": "address",
          "name": "",
          "type": "address"
        }
      ],
      "stateMutability": "view",
      "type": "function"
    },
    {
      "inputs": [],
      "name": "pause",
      "outputs": [],
      "stateMutability": "nonpayable",
      "type": "function"
    },
    {
      "inputs": [],
      "name": "paused",
      "outputs": [
        {
          "internalType": "bool",
          "name": "",
          "type": "bool"
        }
      ],
      "stateMutability": "view",
      "type": "function"
    },
    {
      "inputs": [],
      "name": "reflectionAllocation",
      "outputs": [
        {
          "internalType": "uint256",
          "name": "",
          "type": "uint256"
        }
      ],
      "stateMutability": "view",
      "type": "function"
    },
    {
      "inputs": [],
      "name": "renounceOwnership",
      "outputs": [],
      "stateMutability": "nonpayable",
      "type": "function"
    },
    {
      "inputs": [],
      "name": "sellTax",
      "outputs": [
        {
          "internalType": "uint256",
          "name": "",
          "type": "uint256"
        }
      ],
      "stateMutability": "view",
      "type": "function"
    },
    {
      "inputs": [
        {
          "internalType": "uint256",
          "name": "_liquidityAllocation",
          "type": "uint256"
        },
        {
          "internalType": "uint256",
          "name": "_reflectionAllocation",
          "type": "uint256"
        }
      ],
      "name": "setTaxAllocations",
      "outputs": [],
      "stateMutability": "nonpayable",
      "type": "function"
    },
    {
      "inputs": [
        {
          "internalType": "uint256",
          "name": "_buyTax",
          "type": "uint256"
        },
        {
          "internalType": "uint256",
          "name": "_sellTax",
          "type": "uint256"
        }
      ],
      "name": "setTaxes",
      "outputs": [],
      "stateMutability": "nonpayable",
      "type": "function"
    },
    {
      "inputs": [],
      "name": "symbol",
      "outputs": [
        {
          "internalType": "string",
          "name": "",
          "type": "string"
        }
      ],
      "stateMutability": "view",
      "type": "function"
    },
    {
      "inputs": [],
      "name": "totalReflectionsAccumulated",
      "outputs": [
        {
          "internalType": "uint256",
          "name": "",
          "type": "uint256"
        }
      ],
      "stateMutability": "view",
      "type": "function"
    },
    {
      "inputs": [],
      "name": "totalSupply",
      "outputs": [
        {
          "internalType": "uint256",
          "name": "",
          "type": "uint256"
        }
      ],
      "stateMutability": "view",
      "type": "function"
    },
    {
      "inputs": [
        {
          "internalType": "address",
          "name": "to",
          "type": "address"
        },
        {
          "internalType": "uint256",
          "name": "value",
          "type": "uint256"
        }
      ],
      "name": "transfer",
      "outputs": [
        {
          "internalType": "bool",
          "name": "",
          "type": "bool"
        }
      ],
      "stateMutability": "nonpayable",
      "type": "function"
    },
    {
      "inputs": [
        {
          "internalType": "address",
          "name": "from",
          "type": "address"
        },
        {
          "internalType": "address",
          "name": "to",
          "type": "address"
        },
        {
          "internalType": "uint256",
          "name": "value",
          "type": "uint256"
        }
      ],
      "name": "transferFrom",
      "outputs": [
        {
          "internalType": "bool",
          "name": "",
          "type": "bool"
        }
      ],
      "stateMutability": "nonpayable",
      "type": "function"
    },
    {
      "inputs": [
        {
          "internalType": "address",
          "name": "newOwner",
          "type": "address"
        }
      ],
      "name": "transferOwnership",
      "outputs": [],
      "stateMutability": "nonpayable",
      "type": "function"
    },
    {
      "inputs": [],
      "name": "uniswapRouter",
      "outputs": [
        {
          "internalType": "contract IUniswapV2Router02",
          "name": "",
          "type": "address"
        }
      ],
      "stateMutability": "view",
      "type": "function"
    },
    {
      "inputs": [],
      "name": "unpause",
      "outputs": [],
      "stateMutability": "nonpayable",
      "type": "function"
    },
    {
      "inputs": [],
      "name": "wethAddress",
      "outputs": [
        {
          "internalType": "address",
          "name": "",
          "type": "address"
        }
      ],
      "stateMutability": "view",
      "type": "function"
    },
    {
      "stateMutability": "payable",
      "type": "receive"
    }
  ],
  "bytecode": "0x608060405260056006556005600755600260085560036009553480156200002557600080fd5b506040516200253e3803806200253e8339810160408190526200004891620005af565b336040518060400160405280601181526020017029b0b332a6b7b7b72634b5b2aa37b5b2b760791b8152506040518060400160405280600481526020016314d3531560e21b8152508160039081620000a1919062000695565b506004620000b0828262000695565b5050506001600160a01b038116620000e357604051631e4fbdf760e01b8152600060048201526024015b60405180910390fd5b620000ee8162000277565b506005805460ff60a01b191690556001600160a01b038216620001545760405162461bcd60e51b815260206004820152601660248201527f496e76616c696420726f757465722061646472657373000000000000000000006044820152606401620000da565b600d80546001600160a01b0319166001600160a01b038416908117909155604080516315ab88c960e31b8152905163ad5c4648916004808201926020929091908290030181865afa158015620001ae573d6000803e3d6000fd5b505050506040513d601f19601f82011682018060405250810190620001d4919062000761565b600c80546001600160a01b03199081166001600160a01b0393841617909155600a80549091169183169190911790556200021d336d7b426fab61f00de3639900000000620002c9565b6200022762000307565b600b80546001600160a01b0319166001600160a01b039290921691821790556040517f969ffc8569f9af3993220e04ac05164e5db4e3d9f8b1a47f64e7de9a04b8ea2f90600090a25050620007aa565b600580546001600160a01b038381166001600160a01b0319831681179093556040519116919082907f8be0079c531659141344cd1fd0a4f28419497f9722a3daafe3b4186f6b6457e090600090a35050565b6001600160a01b038216620002f55760405163ec442f0560e01b815260006004820152602401620000da565b620003036000838362000463565b5050565b600080600d60009054906101000a90046001600160a01b03166001600160a01b031663c45a01556040518163ffffffff1660e01b8152600401602060405180830381865afa1580156200035e573d6000803e3d6000fd5b505050506040513d601f19601f8201168201806040525081019062000384919062000761565b600c546040516364e329cb60e11b81523060048201526001600160a01b0391821660248201529192506000919083169063c9c65396906044016020604051808303816000875af1158015620003dd573d6000803e3d6000fd5b505050506040513d601f19601f8201168201806040525081019062000403919062000761565b90506001600160a01b0381166200045d5760405162461bcd60e51b815260206004820152601f60248201527f4661696c656420746f20637265617465206c697175696469747920706f6f6c006044820152606401620000da565b92915050565b6001600160a01b0383166200049257806002600082825462000486919062000788565b90915550620005069050565b6001600160a01b03831660009081526020819052604090205481811015620004e75760405163391434e360e21b81526001600160a01b03851660048201526024810182905260448101839052606401620000da565b6001600160a01b03841660009081526020819052604090209082900390555b6001600160a01b038216620005245760028054829003905562000543565b6001600160a01b03821660009081526020819052604090208054820190555b816001600160a01b0316836001600160a01b03167fddf252ad1be2c89b69c2b068fc378daa952ba7f163c4a11628f55a4df523b3ef836040516200058991815260200190565b60405180910390a3505050565b6001600160a01b0381168114620005ac57600080fd5b50565b60008060408385031215620005c357600080fd5b8251620005d08162000596565b6020840151909250620005e38162000596565b809150509250929050565b634e487b7160e01b600052604160045260246000fd5b600181811c908216806200061957607f821691505b6020821081036200063a57634e487b7160e01b600052602260045260246000fd5b50919050565b601f82111562000690576000816000526020600020601f850160051c810160208610156200066b5750805b601f850160051c820191505b818110156200068c5782815560010162000677565b5050505b505050565b81516001600160401b03811115620006b157620006b1620005ee565b620006c981620006c2845462000604565b8462000640565b602080601f831160018114620007015760008415620006e85750858301515b600019600386901b1c1916600185901b1785556200068c565b600085815260208120601f198616915b82811015620007325788860151825594840194600190910190840162000711565b5085821015620007515787850151600019600388901b60f8161c191681555b5050505050600190811b01905550565b6000602082840312156200077457600080fd5b8151620007818162000596565b9392505050565b808201808211156200045d57634e487b7160e01b600052601160045260246000fd5b611d8480620007ba6000396000f3fe6080604052600436106101c45760003560e01c806383e4874e116100f6578063c647b20e1161008f578063df9c203211610061578063df9c20321461053a578063f2fde38b14610550578063f3f2432e14610570578063fe7b00071461059d57005b8063c647b20e146104a8578063cc1776d3146104c8578063dd62ed3e146104de578063dd7a6cfe1461052457005b8063a9059cbb116100c8578063a9059cbb14610434578063abd653d714610454578063b7c638981461046a578063c02466681461048857005b806383e4874e146103cc5780638456cb59146103ec5780638da5cb5b1461040157806395d89b411461041f57005b80634f0e0ef311610168578063665a11ca1161013a578063665a11ca1461034157806370a0823114610361578063715018a614610397578063735de9f7146103ac57005b80634f0e0ef3146102b45780634f7041a5146102ec5780635c975abb14610302578063610fd5261461032157005b806318160ddd116101a157806318160ddd1461024457806323b872dd14610263578063313ce567146102835780633f4ba83a1461029f57005b806303d93828146101cd57806306fdde0314610202578063095ea7b31461022457005b366101cb57005b005b3480156101d957600080fd5b506101ed6101e83660046118f7565b6105bd565b60405190151581526020015b60405180910390f35b34801561020e57600080fd5b5061021761060c565b6040516101f99190611947565b34801561023057600080fd5b506101ed61023f3660046118f7565b61069e565b34801561025057600080fd5b506002545b6040519081526020016101f9565b34801561026f57600080fd5b506101ed61027e36600461197a565b6106b6565b34801561028f57600080fd5b50604051601281526020016101f9565b3480156102ab57600080fd5b506101cb6106da565b3480156102c057600080fd5b50600c546102d4906001600160a01b031681565b6040516001600160a01b0390911681526020016101f9565b3480156102f857600080fd5b5061025560065481565b34801561030e57600080fd5b50600554600160a01b900460ff166101ed565b34801561032d57600080fd5b506101cb61033c3660046119bb565b6106ec565b34801561034d57600080fd5b50600b546102d4906001600160a01b031681565b34801561036d57600080fd5b5061025561037c3660046119dd565b6001600160a01b031660009081526020819052604090205490565b3480156103a357600080fd5b506101cb61079a565b3480156103b857600080fd5b50600d546102d4906001600160a01b031681565b3480156103d857600080fd5b506101cb6103e73660046119dd565b6107ac565b3480156103f857600080fd5b506101cb6109ac565b34801561040d57600080fd5b506005546001600160a01b03166102d4565b34801561042b57600080fd5b506102176109bc565b34801561044057600080fd5b506101ed61044f3660046118f7565b6109cb565b34801561046057600080fd5b5061025560085481565b34801561047657600080fd5b506102556934f086f3b33b6840000081565b34801561049457600080fd5b506101cb6104a3366004611a0f565b6109d9565b3480156104b457600080fd5b506101cb6104c33660046119bb565b610a0c565b3480156104d457600080fd5b5061025560075481565b3480156104ea57600080fd5b506102556104f9366004611a48565b6001600160a01b03918216600090815260016020908152604080832093909416825291909152205490565b34801561053057600080fd5b5061025560115481565b34801561054657600080fd5b5061025560095481565b34801561055c57600080fd5b506101cb61056b3660046119dd565b610ab2565b34801561057c57600080fd5b5061025561058b3660046119dd565b60106020526000908152604090205481565b3480156105a957600080fd5b506102556105b83660046119dd565b610b09565b604080516001600160a01b0384168152602081018390526000917f2946de6c4ec03d8d15126164a7c0da68d7c6835173e41827a7a715f8becb07a8910160405180910390a15060015b92915050565b60606003805461061b90611a76565b80601f016020809104026020016040519081016040528092919081815260200182805461064790611a76565b80156106945780601f1061066957610100808354040283529160200191610694565b820191906000526020600020905b81548152906001019060200180831161067757829003601f168201915b5050505050905090565b6000336106ac818585610bc3565b5060019392505050565b6000336106c4858285610bd5565b6106cf858585610c6c565b506001949350505050565b6106e2610dc5565b6106ea610e0b565b565b6106f4610dc5565b6106fe8183611ac6565b6005146107525760405162461bcd60e51b815260206004820152601d60248201527f416c6c6f636174696f6e73206d7573742061646420757020746f20352500000060448201526064015b60405180910390fd5b6008829055600981905560408051838152602081018390527f487da67d427046729cb7e70d6ca9de66d8d44374531a8cd7a4016a0060644c7f91015b60405180910390a15050565b6107a2610dc5565b6106ea6000610e60565b60006107b733610b09565b90506000811161082f5760405162461bcd60e51b815260206004820152602260248201527f4e6f20636c61696d61626c65207265666c656374696f6e7320617661696c616260448201527f6c650000000000000000000000000000000000000000000000000000000000006064820152608401610749565b336000908152601060205260408120805483929061084e908490611ac6565b9091555050600c54604080516001600160a01b038581166024830152604480830186905283518084039091018152606490920183526020820180517bffffffffffffffffffffffffffffffffffffffffffffffffffffffff167fa9059cbb00000000000000000000000000000000000000000000000000000000179052915160009392909216916108df9190611ad9565b6000604051808303816000865af19150503d806000811461091c576040519150601f19603f3d011682016040523d82523d6000602084013e610921565b606091505b50509050806109725760405162461bcd60e51b815260206004820152601560248201527f546f6b656e207472616e73666572206661696c656400000000000000000000006044820152606401610749565b60405182815233907fcaa03033c11df8560eb1a698ca7632211dfb8d82def73ba95db35495cd6a671b9060200160405180910390a2505050565b6109b4610dc5565b6106ea610eca565b60606004805461061b90611a76565b6000336106ac818585610c6c565b6109e1610dc5565b6001600160a01b03919091166000908152600e60205260409020805460ff1916911515919091179055565b610a14610dc5565b600a8211158015610a265750600a8111155b610a725760405162461bcd60e51b815260206004820152601560248201527f5461782063616e6e6f74206578636565642031302500000000000000000000006044820152606401610749565b6006829055600781905560408051838152602081018390527f35d461df023e70886ad5e68610133ecb7d637c2263453f6ea50daf699cb31ed4910161078e565b610aba610dc5565b6001600160a01b038116610afd576040517f1e4fbdf700000000000000000000000000000000000000000000000000000000815260006004820152602401610749565b610b0681610e60565b50565b6001600160a01b0381166000908152602081905260408120546934f086f3b33b68400000811015610b3d5750600092915050565b600080805260208190527fad3228b676f7d3cd4284a5443f17f1962b36e491b30a40b2405849e597ba5fb554600254610b769190611af5565b905060008160115484610b899190611b08565b610b939190611b1f565b6001600160a01b038616600090815260106020526040902054909150610bb98183611af5565b9695505050505050565b610bd08383836001610f0d565b505050565b6001600160a01b038381166000908152600160209081526040808320938616835292905220546000198114610c665781811015610c57576040517ffb8f41b20000000000000000000000000000000000000000000000000000000081526001600160a01b03841660048201526024810182905260448101839052606401610749565b610c6684848484036000610f0d565b50505050565b610c74611014565b6001600160a01b0383166000908152600e602052604090205460ff1680610cb357506001600160a01b0382166000908152600e602052604090205460ff165b15610cc357610bd0838383611058565b600b546000906001600160a01b03848116911614610ce357600654610ce7565b6007545b905060006064610cf78385611b08565b610d019190611b1f565b90506000610d0f8285611af5565b905060008360085484610d229190611b08565b610d2c9190611b1f565b90506000610d3a8285611af5565b90506000610d49600284611b1f565b90506000610d578285611af5565b90506000610d658483611ac6565b9050610d728b3089611058565b6000610d7d826110e9565b905060008615610d9357610d9085611296565b90505b8515610dab57610dab610da68284611af5565b61150a565b610db68d8d8a611058565b50505050505050505050505050565b6005546001600160a01b031633146106ea576040517f118cdaa7000000000000000000000000000000000000000000000000000000008152336004820152602401610749565b610e13611557565b6005805460ff60a01b191690557f5db9ee0a495bf2e6ff9c91a7834c1ba4fdd244a5e8aa4e537bd38aeae4b073aa335b6040516001600160a01b03909116815260200160405180910390a1565b600580546001600160a01b038381167fffffffffffffffffffffffff0000000000000000000000000000000000000000831681179093556040519116919082907f8be0079c531659141344cd1fd0a4f28419497f9722a3daafe3b4186f6b6457e090600090a35050565b610ed2611014565b6005805460ff60a01b1916600160a01b1790557f62e78cea01bee320cd4e420270b5ea74000d11b0c9f74754ebdbfc544b05a258610e433390565b6001600160a01b038416610f50576040517fe602df0500000000000000000000000000000000000000000000000000000000815260006004820152602401610749565b6001600160a01b038316610f93576040517f94280d6200000000000000000000000000000000000000000000000000000000815260006004820152602401610749565b6001600160a01b0380851660009081526001602090815260408083209387168352929052208290558015610c6657826001600160a01b0316846001600160a01b03167f8c5be1e5ebec7d5bd14f71427d1e84f3dd0314c0f7b2291e5b200ac8c7c3b9258460405161100691815260200190565b60405180910390a350505050565b600554600160a01b900460ff16156106ea576040517fd93c066500000000000000000000000000000000000000000000000000000000815260040160405180910390fd5b6001600160a01b03831661109b576040517f96c6fd1e00000000000000000000000000000000000000000000000000000000815260006004820152602401610749565b6001600160a01b0382166110de576040517fec442f0500000000000000000000000000000000000000000000000000000000815260006004820152602401610749565b610bd083838361159a565b60008060006110f7846116dd565b600d5491935091506111149030906001600160a01b031686610bc3565b600d54600a546040517f5c11d7950000000000000000000000000000000000000000000000000000000081526001600160a01b0392831692635c11d7959261116a92899260009288929116904290600401611b86565b600060405180830381600087803b15801561118457600080fd5b505af1158015611198573d6000803e3d6000fd5b5050600a54600d54604080516315ab88c960e31b815290516001600160a01b039384169550636a092e799450919092169163ad5c46489160048083019260209291908290030181865afa1580156111f3573d6000803e3d6000fd5b505050506040513d601f19601f820116820180604052508101906112179190611bc2565b6040517fffffffff0000000000000000000000000000000000000000000000000000000060e084901b1681526001600160a01b039091166004820152306024820152604401600060405180830381600087803b15801561127657600080fd5b505af115801561128a573d6000803e3d6000fd5b50939695505050505050565b600c546040517f70a0823100000000000000000000000000000000000000000000000000000000815230600482015260009182916001600160a01b03909116906370a0823190602401602060405180830381865afa1580156112fc573d6000803e3d6000fd5b505050506040513d601f19601f820116820180604052508101906113209190611bdf565b9050600061132d846116dd565b5090506000821180156113405750600081115b1561150357600d5461135d9030906001600160a01b031686610bc3565b600c54600d546040517f095ea7b30000000000000000000000000000000000000000000000000000000081526001600160a01b0391821660048201526024810185905291169063095ea7b3906044016020604051808303816000875af11580156113cb573d6000803e3d6000fd5b505050506040513d601f19601f820116820180604052508101906113ef9190611bf8565b50600d54600c546000916001600160a01b039081169163e8e33700913091168886606461141d836063611b08565b6114279190611b1f565b60646114348a6063611b08565b61143e9190611b1f565b6005546001600160a01b031660405160e089901b7fffffffff000000000000000000000000000000000000000000000000000000001681526001600160a01b039788166004820152958716602487015260448601949094526064850192909252608484015260a483015290911660c48201524260e4820152610104016060604051808303816000875af11580156114d9573d6000803e3d6000fd5b505050506040513d601f19601f820116820180604052508101906114fd9190611c15565b50945050505b5050919050565b806011600082825461151c9190611ac6565b90915550506040518181527f3eeb9763473a030c467b8f096a99e1825a88c6a821c131e1fbb007246a80359c9060200160405180910390a150565b600554600160a01b900460ff166106ea576040517f8dfc202b00000000000000000000000000000000000000000000000000000000815260040160405180910390fd5b6001600160a01b0383166115c55780600260008282546115ba9190611ac6565b909155506116509050565b6001600160a01b03831660009081526020819052604090205481811015611631576040517fe450d38c0000000000000000000000000000000000000000000000000000000081526001600160a01b03851660048201526024810182905260448101839052606401610749565b6001600160a01b03841660009081526020819052604090209082900390555b6001600160a01b03821661166c5760028054829003905561168b565b6001600160a01b03821660009081526020819052604090208054820190555b816001600160a01b0316836001600160a01b03167fddf252ad1be2c89b69c2b068fc378daa952ba7f163c4a11628f55a4df523b3ef836040516116d091815260200190565b60405180910390a3505050565b60006060600083116117575760405162461bcd60e51b815260206004820152602660248201527f546f6b656e20616d6f756e74206d75737420626520677265617465722074686160448201527f6e207a65726f00000000000000000000000000000000000000000000000000006064820152608401610749565b6040805160028082526060820183529091602083019080368337019050509050308160008151811061178b5761178b611c59565b6001600160a01b03928316602091820292909201810191909152600d54604080516315ab88c960e31b81529051919093169263ad5c46489260048083019391928290030181865afa1580156117e4573d6000803e3d6000fd5b505050506040513d601f19601f820116820180604052508101906118089190611bc2565b8160018151811061181b5761181b611c59565b6001600160a01b039283166020918202929092010152600d546040517fd06ca61f000000000000000000000000000000000000000000000000000000008152600092919091169063d06ca61f906118789087908690600401611c6f565b600060405180830381865afa158015611895573d6000803e3d6000fd5b505050506040513d6000823e601f3d908101601f191682016040526118bd9190810190611c90565b9050806001815181106118d2576118d2611c59565b6020026020010151925050915091565b6001600160a01b0381168114610b0657600080fd5b6000806040838503121561190a57600080fd5b8235611915816118e2565b946020939093013593505050565b60005b8381101561193e578181015183820152602001611926565b50506000910152565b6020815260008251806020840152611966816040850160208701611923565b601f01601f19169190910160400192915050565b60008060006060848603121561198f57600080fd5b833561199a816118e2565b925060208401356119aa816118e2565b929592945050506040919091013590565b600080604083850312156119ce57600080fd5b50508035926020909101359150565b6000602082840312156119ef57600080fd5b81356119fa816118e2565b9392505050565b8015158114610b0657600080fd5b60008060408385031215611a2257600080fd5b8235611a2d816118e2565b91506020830135611a3d81611a01565b809150509250929050565b60008060408385031215611a5b57600080fd5b8235611a66816118e2565b91506020830135611a3d816118e2565b600181811c90821680611a8a57607f821691505b602082108103611aaa57634e487b7160e01b600052602260045260246000fd5b50919050565b634e487b7160e01b600052601160045260246000fd5b8082018082111561060657610606611ab0565b60008251611aeb818460208701611923565b9190910192915050565b8181038181111561060657610606611ab0565b808202811582820484141761060657610606611ab0565b600082611b3c57634e487b7160e01b600052601260045260246000fd5b500490565b60008151808452602080850194506020840160005b83811015611b7b5781516001600160a01b031687529582019590820190600101611b56565b509495945050505050565b85815284602082015260a060408201526000611ba560a0830186611b41565b6001600160a01b0394909416606083015250608001529392505050565b600060208284031215611bd457600080fd5b81516119fa816118e2565b600060208284031215611bf157600080fd5b5051919050565b600060208284031215611c0a57600080fd5b81516119fa81611a01565b600080600060608486031215611c2a57600080fd5b8351925060208401519150604084015190509250925092565b634e487b7160e01b600052604160045260246000fd5b634e487b7160e01b600052603260045260246000fd5b828152604060208201526000611c886040830184611b41565b949350505050565b60006020808385031215611ca357600080fd5b825167ffffffffffffffff80821115611cbb57600080fd5b818501915085601f830112611ccf57600080fd5b815181811115611ce157611ce1611c43565b8060051b604051601f19603f83011681018181108582111715611d0657611d06611c43565b604052918252848201925083810185019188831115611d2457600080fd5b938501935b82851015611d4257845184529385019392850192611d29565b9897505050505050505056fea2646970667358221220dec12bc8b8bbf03444def5f9457aec9a009457c1856c74103f0562f4e4ba90fe64736f6c63430008170033",
  "linkReferences": {},
  "deployedLinkReferences": {}
}