{
  "_format": "hh-sol-artifact-1",
  "contractName": "SafeMoonLikeToken",
  "sourceName": "contracts/SafeMoonLikeToken.sol",
  "abi": [
    {
      "inputs": [
        {
          "internalType": "address",
          "name": "_uniswapRouter",
          "type": "address"
        },
        {
          "internalType": "address",
          "name": "_admin",
          "type": "address"
        },
        {
          "internalType": "contract IWETHHolder",
          "name": "_holder",
          "type": "address"
        }
      ],
      "stateMutability": "nonpayable",
      "type": "constructor"
    },
    {
      "inputs": [],
      "name": "ECDSAInvalidSignature",
      "type": "error"
    },
    {
      "inputs": [
        {
          "internalType": "uint256",
          "name": "length",
          "type": "uint256"
        }
      ],
      "name": "ECDSAInvalidSignatureLength",
      "type": "error"
    },
    {
      "inputs": [
        {
          "internalType": "bytes32",
          "name": "s",
          "type": "bytes32"
        }
      ],
      "name": "ECDSAInvalidSignatureS",
      "type": "error"
    },
    {
      "inputs": [
        {
          "internalType": "address",
          "name": "spender",
          "type": "address"
        },
        {
          "internalType": "uint256",
          "name": "allowance",
          "type": "uint256"
        },
        {
          "internalType": "uint256",
          "name": "needed",
          "type": "uint256"
        }
      ],
      "name": "ERC20InsufficientAllowance",
      "type": "error"
    },
    {
      "inputs": [
        {
          "internalType": "address",
          "name": "sender",
          "type": "address"
        },
        {
          "internalType": "uint256",
          "name": "balance",
          "type": "uint256"
        },
        {
          "internalType": "uint256",
          "name": "needed",
          "type": "uint256"
        }
      ],
      "name": "ERC20InsufficientBalance",
      "type": "error"
    },
    {
      "inputs": [
        {
          "internalType": "address",
          "name": "approver",
          "type": "address"
        }
      ],
      "name": "ERC20InvalidApprover",
      "type": "error"
    },
    {
      "inputs": [
        {
          "internalType": "address",
          "name": "receiver",
          "type": "address"
        }
      ],
      "name": "ERC20InvalidReceiver",
      "type": "error"
    },
    {
      "inputs": [
        {
          "internalType": "address",
          "name": "sender",
          "type": "address"
        }
      ],
      "name": "ERC20InvalidSender",
      "type": "error"
    },
    {
      "inputs": [
        {
          "internalType": "address",
          "name": "spender",
          "type": "address"
        }
      ],
      "name": "ERC20InvalidSpender",
      "type": "error"
    },
    {
      "inputs": [],
      "name": "EnforcedPause",
      "type": "error"
    },
    {
      "inputs": [],
      "name": "ExpectedPause",
      "type": "error"
    },
    {
      "inputs": [
        {
          "internalType": "address",
          "name": "owner",
          "type": "address"
        }
      ],
      "name": "OwnableInvalidOwner",
      "type": "error"
    },
    {
      "inputs": [
        {
          "internalType": "address",
          "name": "account",
          "type": "address"
        }
      ],
      "name": "OwnableUnauthorizedAccount",
      "type": "error"
    },
    {
      "anonymous": false,
      "inputs": [
        {
          "indexed": true,
          "internalType": "address",
          "name": "owner",
          "type": "address"
        },
        {
          "indexed": true,
          "internalType": "address",
          "name": "spender",
          "type": "address"
        },
        {
          "indexed": false,
          "internalType": "uint256",
          "name": "value",
          "type": "uint256"
        }
      ],
      "name": "Approval",
      "type": "event"
    },
    {
      "anonymous": false,
      "inputs": [
        {
          "indexed": true,
          "internalType": "address",
          "name": "liquidityPool",
          "type": "address"
        }
      ],
      "name": "LiquidityPoolCreated",
      "type": "event"
    },
    {
      "anonymous": false,
      "inputs": [
        {
          "indexed": true,
          "internalType": "address",
          "name": "previousOwner",
          "type": "address"
        },
        {
          "indexed": true,
          "internalType": "address",
          "name": "newOwner",
          "type": "address"
        }
      ],
      "name": "OwnershipTransferred",
      "type": "event"
    },
    {
      "anonymous": false,
      "inputs": [
        {
          "indexed": false,
          "internalType": "address",
          "name": "account",
          "type": "address"
        }
      ],
      "name": "Paused",
      "type": "event"
    },
    {
      "anonymous": false,
      "inputs": [
        {
          "indexed": false,
          "internalType": "address",
          "name": "from",
          "type": "address"
        },
        {
          "indexed": false,
          "internalType": "uint256",
          "name": "amount",
          "type": "uint256"
        }
      ],
      "name": "ReceivedTokens",
      "type": "event"
    },
    {
      "anonymous": false,
      "inputs": [
        {
          "indexed": true,
          "internalType": "address",
          "name": "holder",
          "type": "address"
        },
        {
          "indexed": false,
          "internalType": "uint256",
          "name": "amount",
          "type": "uint256"
        }
      ],
      "name": "ReflectionsClaimed",
      "type": "event"
    },
    {
      "anonymous": false,
      "inputs": [
        {
          "indexed": false,
          "internalType": "uint256",
          "name": "amount",
          "type": "uint256"
        }
      ],
      "name": "ReflectionsDistributed",
      "type": "event"
    },
    {
      "anonymous": false,
      "inputs": [
        {
          "indexed": true,
          "internalType": "address",
          "name": "to",
          "type": "address"
        },
        {
          "indexed": false,
          "internalType": "uint256",
          "name": "amount",
          "type": "uint256"
        }
      ],
      "name": "RewardClaimed",
      "type": "event"
    },
    {
      "anonymous": false,
      "inputs": [
        {
          "indexed": false,
          "internalType": "uint256",
          "name": "liquidityAllocation",
          "type": "uint256"
        },
        {
          "indexed": false,
          "internalType": "uint256",
          "name": "reflectionAllocation",
          "type": "uint256"
        }
      ],
      "name": "TaxAllocationsUpdated",
      "type": "event"
    },
    {
      "anonymous": false,
      "inputs": [
        {
          "indexed": false,
          "internalType": "uint256",
          "name": "buyTax",
          "type": "uint256"
        },
        {
          "indexed": false,
          "internalType": "uint256",
          "name": "sellTax",
          "type": "uint256"
        }
      ],
      "name": "TaxesUpdated",
      "type": "event"
    },
    {
      "anonymous": false,
      "inputs": [
        {
          "indexed": true,
          "internalType": "address",
          "name": "from",
          "type": "address"
        },
        {
          "indexed": true,
          "internalType": "address",
          "name": "to",
          "type": "address"
        },
        {
          "indexed": false,
          "internalType": "uint256",
          "name": "value",
          "type": "uint256"
        }
      ],
      "name": "Transfer",
      "type": "event"
    },
    {
      "anonymous": false,
      "inputs": [
        {
          "indexed": false,
          "internalType": "address",
          "name": "account",
          "type": "address"
        }
      ],
      "name": "Unpaused",
      "type": "event"
    },
    {
      "stateMutability": "payable",
      "type": "fallback"
    },
    {
      "inputs": [],
      "name": "MINIMUM_HOLDING_FOR_REFLECTION",
      "outputs": [
        {
          "internalType": "uint256",
          "name": "",
          "type": "uint256"
        }
      ],
      "stateMutability": "view",
      "type": "function"
    },
    {
      "inputs": [],
      "name": "admin",
      "outputs": [
        {
          "internalType": "address",
          "name": "",
          "type": "address"
        }
      ],
      "stateMutability": "view",
      "type": "function"
    },
    {
      "inputs": [
        {
          "internalType": "address",
          "name": "owner",
          "type": "address"
        },
        {
          "internalType": "address",
          "name": "spender",
          "type": "address"
        }
      ],
      "name": "allowance",
      "outputs": [
        {
          "internalType": "uint256",
          "name": "",
          "type": "uint256"
        }
      ],
      "stateMutability": "view",
      "type": "function"
    },
    {
      "inputs": [
        {
          "internalType": "address",
          "name": "spender",
          "type": "address"
        },
        {
          "internalType": "uint256",
          "name": "value",
          "type": "uint256"
        }
      ],
      "name": "approve",
      "outputs": [
        {
          "internalType": "bool",
          "name": "",
          "type": "bool"
        }
      ],
      "stateMutability": "nonpayable",
      "type": "function"
    },
    {
      "inputs": [
        {
          "internalType": "address",
          "name": "account",
          "type": "address"
        }
      ],
      "name": "balanceOf",
      "outputs": [
        {
          "internalType": "uint256",
          "name": "",
          "type": "uint256"
        }
      ],
      "stateMutability": "view",
      "type": "function"
    },
    {
      "inputs": [],
      "name": "buyTax",
      "outputs": [
        {
          "internalType": "uint256",
          "name": "",
          "type": "uint256"
        }
      ],
      "stateMutability": "view",
      "type": "function"
    },
    {
      "inputs": [
        {
          "internalType": "address",
          "name": "holder",
          "type": "address"
        }
      ],
      "name": "calculateClaimable",
      "outputs": [
        {
          "internalType": "uint256",
          "name": "",
          "type": "uint256"
        }
      ],
      "stateMutability": "view",
      "type": "function"
    },
    {
      "inputs": [
        {
          "internalType": "address",
          "name": "_addr",
          "type": "address"
        }
      ],
      "name": "changeAdmin",
      "outputs": [],
      "stateMutability": "nonpayable",
      "type": "function"
    },
    {
      "inputs": [
        {
          "internalType": "address",
          "name": "_receiver",
          "type": "address"
        }
      ],
      "name": "claimReflections",
      "outputs": [],
      "stateMutability": "nonpayable",
      "type": "function"
    },
    {
      "inputs": [
        {
          "internalType": "bytes",
          "name": "encryptedData",
          "type": "bytes"
        },
        {
          "internalType": "bytes",
          "name": "signature",
          "type": "bytes"
        }
      ],
      "name": "claimRewardPoints",
      "outputs": [],
      "stateMutability": "nonpayable",
      "type": "function"
    },
    {
      "inputs": [
        {
          "internalType": "address",
          "name": "",
          "type": "address"
        }
      ],
      "name": "claimableReflections",
      "outputs": [
        {
          "internalType": "uint256",
          "name": "",
          "type": "uint256"
        }
      ],
      "stateMutability": "view",
      "type": "function"
    },
    {
      "inputs": [],
      "name": "decimals",
      "outputs": [
        {
          "internalType": "uint8",
          "name": "",
          "type": "uint8"
        }
      ],
      "stateMutability": "view",
      "type": "function"
    },
    {
      "inputs": [
        {
          "internalType": "address",
          "name": "account",
          "type": "address"
        },
        {
          "internalType": "bool",
          "name": "excluded",
          "type": "bool"
        }
      ],
      "name": "excludeFromFees",
      "outputs": [],
      "stateMutability": "nonpayable",
      "type": "function"
    },
    {
      "inputs": [],
      "name": "liquidityAllocation",
      "outputs": [
        {
          "internalType": "uint256",
          "name": "",
          "type": "uint256"
        }
      ],
      "stateMutability": "view",
      "type": "function"
    },
    {
      "inputs": [],
      "name": "liquidityPool",
      "outputs": [
        {
          "internalType": "address",
          "name": "",
          "type": "address"
        }
      ],
      "stateMutability": "view",
      "type": "function"
    },
    {
      "inputs": [],
      "name": "name",
      "outputs": [
        {
          "internalType": "string",
          "name": "",
          "type": "string"
        }
      ],
      "stateMutability": "view",
      "type": "function"
    },
    {
      "inputs": [
        {
          "internalType": "address",
          "name": "from",
          "type": "address"
        },
        {
          "internalType": "uint256",
          "name": "amount",
          "type": "uint256"
        }
      ],
      "name": "onERC20Receive",
      "outputs": [
        {
          "internalType": "bool",
          "name": "",
          "type": "bool"
        }
      ],
      "stateMutability": "nonpayable",
      "type": "function"
    },
    {
      "inputs": [],
      "name": "owner",
      "outputs": [
        {
          "internalType": "address",
          "name": "",
          "type": "address"
        }
      ],
      "stateMutability": "view",
      "type": "function"
    },
    {
      "inputs": [],
      "name": "pause",
      "outputs": [],
      "stateMutability": "nonpayable",
      "type": "function"
    },
    {
      "inputs": [],
      "name": "paused",
      "outputs": [
        {
          "internalType": "bool",
          "name": "",
          "type": "bool"
        }
      ],
      "stateMutability": "view",
      "type": "function"
    },
    {
      "inputs": [],
      "name": "reflectionAllocation",
      "outputs": [
        {
          "internalType": "uint256",
          "name": "",
          "type": "uint256"
        }
      ],
      "stateMutability": "view",
      "type": "function"
    },
    {
      "inputs": [],
      "name": "renounceOwnership",
      "outputs": [],
      "stateMutability": "nonpayable",
      "type": "function"
    },
    {
      "inputs": [],
      "name": "sellTax",
      "outputs": [
        {
          "internalType": "uint256",
          "name": "",
          "type": "uint256"
        }
      ],
      "stateMutability": "view",
      "type": "function"
    },
    {
      "inputs": [
        {
          "internalType": "uint256",
          "name": "_liquidityAllocation",
          "type": "uint256"
        },
        {
          "internalType": "uint256",
          "name": "_reflectionAllocation",
          "type": "uint256"
        }
      ],
      "name": "setTaxAllocations",
      "outputs": [],
      "stateMutability": "nonpayable",
      "type": "function"
    },
    {
      "inputs": [
        {
          "internalType": "uint256",
          "name": "_buyTax",
          "type": "uint256"
        },
        {
          "internalType": "uint256",
          "name": "_sellTax",
          "type": "uint256"
        }
      ],
      "name": "setTaxes",
      "outputs": [],
      "stateMutability": "nonpayable",
      "type": "function"
    },
    {
      "inputs": [],
      "name": "symbol",
      "outputs": [
        {
          "internalType": "string",
          "name": "",
          "type": "string"
        }
      ],
      "stateMutability": "view",
      "type": "function"
    },
    {
      "inputs": [],
      "name": "totalReflectionsAccumulated",
      "outputs": [
        {
          "internalType": "uint256",
          "name": "",
          "type": "uint256"
        }
      ],
      "stateMutability": "view",
      "type": "function"
    },
    {
      "inputs": [],
      "name": "totalSupply",
      "outputs": [
        {
          "internalType": "uint256",
          "name": "",
          "type": "uint256"
        }
      ],
      "stateMutability": "view",
      "type": "function"
    },
    {
      "inputs": [
        {
          "internalType": "address",
          "name": "to",
          "type": "address"
        },
        {
          "internalType": "uint256",
          "name": "value",
          "type": "uint256"
        }
      ],
      "name": "transfer",
      "outputs": [
        {
          "internalType": "bool",
          "name": "",
          "type": "bool"
        }
      ],
      "stateMutability": "nonpayable",
      "type": "function"
    },
    {
      "inputs": [
        {
          "internalType": "address",
          "name": "from",
          "type": "address"
        },
        {
          "internalType": "address",
          "name": "to",
          "type": "address"
        },
        {
          "internalType": "uint256",
          "name": "value",
          "type": "uint256"
        }
      ],
      "name": "transferFrom",
      "outputs": [
        {
          "internalType": "bool",
          "name": "",
          "type": "bool"
        }
      ],
      "stateMutability": "nonpayable",
      "type": "function"
    },
    {
      "inputs": [
        {
          "internalType": "address",
          "name": "newOwner",
          "type": "address"
        }
      ],
      "name": "transferOwnership",
      "outputs": [],
      "stateMutability": "nonpayable",
      "type": "function"
    },
    {
      "inputs": [],
      "name": "uniswapRouter",
      "outputs": [
        {
          "internalType": "contract IUniswapV2Router02",
          "name": "",
          "type": "address"
        }
      ],
      "stateMutability": "view",
      "type": "function"
    },
    {
      "inputs": [],
      "name": "unpause",
      "outputs": [],
      "stateMutability": "nonpayable",
      "type": "function"
    },
    {
      "inputs": [
        {
          "internalType": "address",
          "name": "",
          "type": "address"
        }
      ],
      "name": "userNonce",
      "outputs": [
        {
          "internalType": "uint256",
          "name": "",
          "type": "uint256"
        }
      ],
      "stateMutability": "view",
      "type": "function"
    },
    {
      "inputs": [],
      "name": "wethAddress",
      "outputs": [
        {
          "internalType": "address",
          "name": "",
          "type": "address"
        }
      ],
      "stateMutability": "view",
      "type": "function"
    },
    {
      "stateMutability": "payable",
      "type": "receive"
    }
  ],
  "bytecode": "0x608060405260056006556005600755600260085560036009553480156200002557600080fd5b5060405162003074380380620030748339810160408190526200004891620005cb565b336040518060400160405280601181526020017029b0b332a6b7b7b72634b5b2aa37b5b2b760791b8152506040518060400160405280600481526020016314d3531560e21b8152508160039081620000a19190620006c6565b506004620000b08282620006c6565b5050506001600160a01b038116620000e357604051631e4fbdf760e01b8152600060048201526024015b60405180910390fd5b620000ee8162000293565b506005805460ff60a01b191690556001600160a01b038316620001545760405162461bcd60e51b815260206004820152601660248201527f496e76616c696420726f757465722061646472657373000000000000000000006044820152606401620000da565b600e80546001600160a01b0319166001600160a01b038516908117909155604080516315ab88c960e31b8152905163ad5c4648916004808201926020929091908290030181865afa158015620001ae573d6000803e3d6000fd5b505050506040513d601f19601f82011682018060405250810190620001d4919062000792565b600d80546001600160a01b03199081166001600160a01b0393841617909155600a80549091169183169190911790556200021d336d7b426fab61f00de3639900000000620002e5565b600b80546001600160a01b0319166001600160a01b0384161790556200024262000323565b600c80546001600160a01b0319166001600160a01b039290921691821790556040517f969ffc8569f9af3993220e04ac05164e5db4e3d9f8b1a47f64e7de9a04b8ea2f90600090a2505050620007db565b600580546001600160a01b038381166001600160a01b0319831681179093556040519116919082907f8be0079c531659141344cd1fd0a4f28419497f9722a3daafe3b4186f6b6457e090600090a35050565b6001600160a01b038216620003115760405163ec442f0560e01b815260006004820152602401620000da565b6200031f600083836200047f565b5050565b600080600e60009054906101000a90046001600160a01b03166001600160a01b031663c45a01556040518163ffffffff1660e01b8152600401602060405180830381865afa1580156200037a573d6000803e3d6000fd5b505050506040513d601f19601f82011682018060405250810190620003a0919062000792565b600d546040516364e329cb60e11b81523060048201526001600160a01b0391821660248201529192506000919083169063c9c65396906044016020604051808303816000875af1158015620003f9573d6000803e3d6000fd5b505050506040513d601f19601f820116820180604052508101906200041f919062000792565b90506001600160a01b038116620004795760405162461bcd60e51b815260206004820152601f60248201527f4661696c656420746f20637265617465206c697175696469747920706f6f6c006044820152606401620000da565b92915050565b6001600160a01b038316620004ae578060026000828254620004a29190620007b9565b90915550620005229050565b6001600160a01b03831660009081526020819052604090205481811015620005035760405163391434e360e21b81526001600160a01b03851660048201526024810182905260448101839052606401620000da565b6001600160a01b03841660009081526020819052604090209082900390555b6001600160a01b03821662000540576002805482900390556200055f565b6001600160a01b03821660009081526020819052604090208054820190555b816001600160a01b0316836001600160a01b03167fddf252ad1be2c89b69c2b068fc378daa952ba7f163c4a11628f55a4df523b3ef83604051620005a591815260200190565b60405180910390a3505050565b6001600160a01b0381168114620005c857600080fd5b50565b600080600060608486031215620005e157600080fd5b8351620005ee81620005b2565b60208501519093506200060181620005b2565b60408501519092506200061481620005b2565b809150509250925092565b634e487b7160e01b600052604160045260246000fd5b600181811c908216806200064a57607f821691505b6020821081036200066b57634e487b7160e01b600052602260045260246000fd5b50919050565b601f821115620006c1576000816000526020600020601f850160051c810160208610156200069c5750805b601f850160051c820191505b81811015620006bd57828155600101620006a8565b5050505b505050565b81516001600160401b03811115620006e257620006e26200061f565b620006fa81620006f3845462000635565b8462000671565b602080601f831160018114620007325760008415620007195750858301515b600019600386901b1c1916600185901b178555620006bd565b600085815260208120601f198616915b82811015620007635788860151825594840194600190910190840162000742565b5085821015620007825787850151600019600388901b60f8161c191681555b5050505050600190811b01905550565b600060208284031215620007a557600080fd5b8151620007b281620005b2565b9392505050565b808201808211156200047957634e487b7160e01b600052601160045260246000fd5b61288980620007eb6000396000f3fe6080604052600436106102175760003560e01c806383e4874e11610126578063c647b20e116100a7578063df9c203211610079578063f3f2432e11610061578063f3f2432e1461062f578063f851a4401461065c578063fe7b00071461067c57005b8063df9c2032146105f9578063f2fde38b1461060f57005b8063c647b20e14610567578063cc1776d314610587578063dd62ed3e1461059d578063dd7a6cfe146105e357005b806395d89b41116100f8578063abd653d7116100e0578063abd653d714610514578063b7c638981461052a578063c02466681461054757005b806395d89b41146104df578063a9059cbb146104f457005b806383e4874e1461046c5780638456cb591461048c5780638da5cb5b146104a15780638f283970146104bf57005b80634f0e0ef3116101b0578063665a11ca11610182578063715018a61161016a578063715018a614610417578063735de9f71461042c5780637d3fde381461044c57005b8063665a11ca146103c157806370a08231146103e157005b80634f0e0ef3146103345780634f7041a51461036c5780635c975abb14610382578063610fd526146103a157005b806323b872dd116101e957806323b872dd146102b65780632e04b8e7146102d6578063313ce567146103035780633f4ba83a1461031f57005b806303d938281461022057806306fdde0314610255578063095ea7b31461027757806318160ddd1461029757005b3661021e57005b005b34801561022c57600080fd5b5061024061023b366004612273565b61069c565b60405190151581526020015b60405180910390f35b34801561026157600080fd5b5061026a6106eb565b60405161024c91906122ef565b34801561028357600080fd5b50610240610292366004612273565b61077d565b3480156102a357600080fd5b506002545b60405190815260200161024c565b3480156102c257600080fd5b506102406102d1366004612309565b610795565b3480156102e257600080fd5b506102a86102f136600461234a565b600f6020526000908152604090205481565b34801561030f57600080fd5b506040516012815260200161024c565b34801561032b57600080fd5b5061021e6107b9565b34801561034057600080fd5b50600d54610354906001600160a01b031681565b6040516001600160a01b03909116815260200161024c565b34801561037857600080fd5b506102a860065481565b34801561038e57600080fd5b50600554600160a01b900460ff16610240565b3480156103ad57600080fd5b5061021e6103bc366004612367565b6107cb565b3480156103cd57600080fd5b50600c54610354906001600160a01b031681565b3480156103ed57600080fd5b506102a86103fc36600461234a565b6001600160a01b031660009081526020819052604090205490565b34801561042357600080fd5b5061021e610879565b34801561043857600080fd5b50600e54610354906001600160a01b031681565b34801561045857600080fd5b5061021e610467366004612440565b61088b565b34801561047857600080fd5b5061021e61048736600461234a565b610a84565b34801561049857600080fd5b5061021e610b15565b3480156104ad57600080fd5b506005546001600160a01b0316610354565b3480156104cb57600080fd5b5061021e6104da36600461234a565b610b25565b3480156104eb57600080fd5b5061026a610bb2565b34801561050057600080fd5b5061024061050f366004612273565b610bc1565b34801561052057600080fd5b506102a860085481565b34801561053657600080fd5b506102a8680d8d726b7177a8000081565b34801561055357600080fd5b5061021e6105623660046124b2565b610bcf565b34801561057357600080fd5b5061021e610582366004612367565b610c02565b34801561059357600080fd5b506102a860075481565b3480156105a957600080fd5b506102a86105b83660046124eb565b6001600160a01b03918216600090815260016020908152604080832093909416825291909152205490565b3480156105ef57600080fd5b506102a860135481565b34801561060557600080fd5b506102a860095481565b34801561061b57600080fd5b5061021e61062a36600461234a565b610ca8565b34801561063b57600080fd5b506102a861064a36600461234a565b60126020526000908152604090205481565b34801561066857600080fd5b50600b54610354906001600160a01b031681565b34801561068857600080fd5b506102a861069736600461234a565b610cff565b604080516001600160a01b0384168152602081018390526000917f2946de6c4ec03d8d15126164a7c0da68d7c6835173e41827a7a715f8becb07a8910160405180910390a15060015b92915050565b6060600380546106fa90612519565b80601f016020809104026020016040519081016040528092919081815260200182805461072690612519565b80156107735780601f1061074857610100808354040283529160200191610773565b820191906000526020600020905b81548152906001019060200180831161075657829003601f168201915b5050505050905090565b60003361078b818585610e46565b5060019392505050565b6000336107a3858285610e58565b6107ae858585610eef565b506001949350505050565b6107c16111aa565b6107c96111f0565b565b6107d36111aa565b6107dd8183612569565b6005146108315760405162461bcd60e51b815260206004820152601d60248201527f416c6c6f636174696f6e73206d7573742061646420757020746f20352500000060448201526064015b60405180910390fd5b6008829055600981905560408051838152602081018390527f487da67d427046729cb7e70d6ca9de66d8d44374531a8cd7a4016a0060644c7f91015b60405180910390a15050565b6108816111aa565b6107c96000611245565b60008060008061089a866112a4565b9350935093509350836001600160a01b0316336001600160a01b0316146109035760405162461bcd60e51b815260206004820152601160248201527f4e6f7420616c6c6f77656420436c61696d0000000000000000000000000000006044820152606401610828565b336000908152600f602052604090205481146109615760405162461bcd60e51b815260206004820152600c60248201527f57726f6e67204e6f6e63657300000000000000000000000000000000000000006044820152606401610828565b8142106109b05760405162461bcd60e51b815260206004820152601060248201527f53657373696f6e2074696d65206f7574000000000000000000000000000000006044820152606401610828565b6109ba42836112d7565b6109c78484848489611337565b610a135760405162461bcd60e51b815260206004820152601760248201527f496e76616c69642061646d696e207369676e61747572650000000000000000006044820152606401610828565b6001600160a01b0384166000908152600f60205260408120805491610a378361257c565b9190505550610a47308585610eef565b60405183815233907f106f923f993c2149d49b4255ff723acafa1f2d94393f561d3eda32ae348f72419060200160405180910390a2505050505050565b6000610a8f82610cff565b905060008111610b075760405162461bcd60e51b815260206004820152602260248201527f4e6f20636c61696d61626c65207265666c656374696f6e7320617661696c616260448201527f6c650000000000000000000000000000000000000000000000000000000000006064820152608401610828565b610b11828261140e565b5050565b610b1d6111aa565b6107c961158d565b610b2d6111aa565b6001600160a01b038116610b835760405162461bcd60e51b815260206004820152600c60248201527f5a65726f206164647265737300000000000000000000000000000000000000006044820152606401610828565b600b805473ffffffffffffffffffffffffffffffffffffffff19166001600160a01b0392909216919091179055565b6060600480546106fa90612519565b60003361078b818585610eef565b610bd76111aa565b6001600160a01b03919091166000908152601060205260409020805460ff1916911515919091179055565b610c0a6111aa565b600a8211158015610c1c5750600a8111155b610c685760405162461bcd60e51b815260206004820152601560248201527f5461782063616e6e6f74206578636565642031302500000000000000000000006044820152606401610828565b6006829055600781905560408051838152602081018390527f35d461df023e70886ad5e68610133ecb7d637c2263453f6ea50daf699cb31ed4910161086d565b610cb06111aa565b6001600160a01b038116610cf3576040517f1e4fbdf700000000000000000000000000000000000000000000000000000000815260006004820152602401610828565b610cfc81611245565b50565b6001600160a01b038116600090815260208190526040812054680d8d726b7177a80000811015610d325750600092915050565b600080805260208190527fad3228b676f7d3cd4284a5443f17f1962b36e491b30a40b2405849e597ba5fb554600254610d6b9190612595565b905060008160135484610d7e91906125a8565b610d8891906125bf565b9050600060126000876001600160a01b03166001600160a01b03168152602001908152602001600020549050610df36040518060400160405280600f81526020017f7265666c656374696f6e53686172650000000000000000000000000000000000815250836115d0565b610e326040518060400160405280600e81526020017f616c7265616479436c61696d6564000000000000000000000000000000000000815250826115d0565b610e3c8183612595565b9695505050505050565b610e53838383600161162e565b505050565b6001600160a01b038381166000908152600160209081526040808320938616835292905220546000198114610ee95781811015610eda576040517ffb8f41b20000000000000000000000000000000000000000000000000000000081526001600160a01b03841660048201526024810182905260448101839052606401610828565b610ee98484848403600061162e565b50505050565b610ef7611735565b6001600160a01b03831660009081526010602052604090205460ff1680610f3657506001600160a01b03821660009081526010602052604090205460ff165b15610f4657610e53838383611779565b600c546000906001600160a01b03848116911614610f6657600654610f6a565b6007545b905060006064610f7a83856125a8565b610f8491906125bf565b90506000610f928285612595565b905060008360085484610fa591906125a8565b610faf91906125bf565b90506000610fbd8285612595565b90506000610fcc6002846125bf565b90506000610fda8285612595565b90506000610fe88483612569565b9050610ff58b3089611779565b60006110008261180a565b90506000861561101657611013856119b7565b90505b851561102e5761102e6110298284612595565b611c12565b6110398d8d8a611779565b60006110448e610cff565b905060006110518e610cff565b604080518082018252601581527f5745544820434f4e54524143542042414c414e434500000000000000000000006020820152600d5491516370a0823160e01b81523060048201529293506110fb9290916001600160a01b0316906370a0823190602401602060405180830381865afa1580156110d2573d6000803e3d6000fd5b505050506040513d601f19601f820116820180604052508101906110f691906125e1565b6115d0565b61113a6040518060400160405280600f81526020017f636c61696d416d6f756e7446726f6d0000000000000000000000000000000000815250836115d0565b6111796040518060400160405280600d81526020017f636c61696d416d6f756e74546f00000000000000000000000000000000000000815250826115d0565b8115611189576111898f8361140e565b8015611199576111998e8261140e565b505050505050505050505050505050565b6005546001600160a01b031633146107c9576040517f118cdaa7000000000000000000000000000000000000000000000000000000008152336004820152602401610828565b6111f8611c5f565b6005805460ff60a01b191690557f5db9ee0a495bf2e6ff9c91a7834c1ba4fdd244a5e8aa4e537bd38aeae4b073aa335b6040516001600160a01b03909116815260200160405180910390a1565b600580546001600160a01b0383811673ffffffffffffffffffffffffffffffffffffffff19831681179093556040519116919082907f8be0079c531659141344cd1fd0a4f28419497f9722a3daafe3b4186f6b6457e090600090a35050565b600080600080600080600080888060200190518101906112c491906125fa565b929c919b50995090975095505050505050565b6040516024810183905260448101829052610b119060640160408051601f198184030181529190526020810180516001600160e01b03167ff666715a00000000000000000000000000000000000000000000000000000000179052611ca2565b6040516bffffffffffffffffffffffff19606087901b16602082015260348101859052605481018490526074810183905260009081906094016040516020818303038152906040528051906020012090506000816040516020016113c791907f19457468657265756d205369676e6564204d6573736167653a0a3332000000008152601c810191909152603c0190565b60408051601f198184030181529190528051602090910120600b549091506001600160a01b03166113f88286611cab565b6001600160a01b03161498975050505050505050565b6001600160a01b03821660009081526012602052604081208054839290611436908490612569565b9091555050600d54604080516001600160a01b038581166024830152604480830186905283518084039091018152606490920183526020820180516001600160e01b03167fa9059cbb00000000000000000000000000000000000000000000000000000000179052915160009392909216916114b29190612639565b6000604051808303816000865af19150503d80600081146114ef576040519150601f19603f3d011682016040523d82523d6000602084013e6114f4565b606091505b50509050806115455760405162461bcd60e51b815260206004820152601560248201527f546f6b656e207472616e73666572206661696c656400000000000000000000006044820152606401610828565b826001600160a01b03167fcaa03033c11df8560eb1a698ca7632211dfb8d82def73ba95db35495cd6a671b8360405161158091815260200190565b60405180910390a2505050565b611595611735565b6005805460ff60a01b1916600160a01b1790557f62e78cea01bee320cd4e420270b5ea74000d11b0c9f74754ebdbfc544b05a2586112283390565b610b1182826040516024016115e6929190612655565b60408051601f198184030181529190526020810180516001600160e01b03167fb60e72cc00000000000000000000000000000000000000000000000000000000179052611ca2565b6001600160a01b038416611671576040517fe602df0500000000000000000000000000000000000000000000000000000000815260006004820152602401610828565b6001600160a01b0383166116b4576040517f94280d6200000000000000000000000000000000000000000000000000000000815260006004820152602401610828565b6001600160a01b0380851660009081526001602090815260408083209387168352929052208290558015610ee957826001600160a01b0316846001600160a01b03167f8c5be1e5ebec7d5bd14f71427d1e84f3dd0314c0f7b2291e5b200ac8c7c3b9258460405161172791815260200190565b60405180910390a350505050565b600554600160a01b900460ff16156107c9576040517fd93c066500000000000000000000000000000000000000000000000000000000815260040160405180910390fd5b6001600160a01b0383166117bc576040517f96c6fd1e00000000000000000000000000000000000000000000000000000000815260006004820152602401610828565b6001600160a01b0382166117ff576040517fec442f0500000000000000000000000000000000000000000000000000000000815260006004820152602401610828565b610e53838383611cd5565b600080600061181884611e18565b600e5491935091506118359030906001600160a01b031686610e46565b600e54600a546040517f5c11d7950000000000000000000000000000000000000000000000000000000081526001600160a01b0392831692635c11d7959261188b928992600092889291169042906004016126bc565b600060405180830381600087803b1580156118a557600080fd5b505af11580156118b9573d6000803e3d6000fd5b5050600a54600e54604080516315ab88c960e31b815290516001600160a01b039384169550636a092e799450919092169163ad5c46489160048083019260209291908290030181865afa158015611914573d6000803e3d6000fd5b505050506040513d601f19601f8201168201806040525081019061193891906126f8565b6040517fffffffff0000000000000000000000000000000000000000000000000000000060e084901b1681526001600160a01b039091166004820152306024820152604401600060405180830381600087803b15801561199757600080fd5b505af11580156119ab573d6000803e3d6000fd5b50939695505050505050565b600d546040516370a0823160e01b815230600482015260009182916001600160a01b03909116906370a0823190602401602060405180830381865afa158015611a04573d6000803e3d6000fd5b505050506040513d601f19601f82011682018060405250810190611a2891906125e1565b90506000611a3584611e18565b509050600082118015611a485750600081115b15611c0b57600e54611a659030906001600160a01b031686610e46565b600d54600e546040517f095ea7b30000000000000000000000000000000000000000000000000000000081526001600160a01b0391821660048201526024810185905291169063095ea7b3906044016020604051808303816000875af1158015611ad3573d6000803e3d6000fd5b505050506040513d601f19601f82011682018060405250810190611af79190612715565b50600e54600d546000916001600160a01b039081169163e8e337009130911688866064611b258360636125a8565b611b2f91906125bf565b6064611b3c8a60636125a8565b611b4691906125bf565b6005546001600160a01b031660405160e089901b7fffffffff000000000000000000000000000000000000000000000000000000001681526001600160a01b039788166004820152958716602487015260448601949094526064850192909252608484015260a483015290911660c48201524260e4820152610104016060604051808303816000875af1158015611be1573d6000803e3d6000fd5b505050506040513d601f19601f82011682018060405250810190611c059190612732565b50945050505b5050919050565b8060136000828254611c249190612569565b90915550506040518181527f3eeb9763473a030c467b8f096a99e1825a88c6a821c131e1fbb007246a80359c9060200160405180910390a150565b600554600160a01b900460ff166107c9576040517f8dfc202b00000000000000000000000000000000000000000000000000000000815260040160405180910390fd5b610cfc8161201d565b600080600080611cbb868661203e565b925092509250611ccb828261208b565b5090949350505050565b6001600160a01b038316611d00578060026000828254611cf59190612569565b90915550611d8b9050565b6001600160a01b03831660009081526020819052604090205481811015611d6c576040517fe450d38c0000000000000000000000000000000000000000000000000000000081526001600160a01b03851660048201526024810182905260448101839052606401610828565b6001600160a01b03841660009081526020819052604090209082900390555b6001600160a01b038216611da757600280548290039055611dc6565b6001600160a01b03821660009081526020819052604090208054820190555b816001600160a01b0316836001600160a01b03167fddf252ad1be2c89b69c2b068fc378daa952ba7f163c4a11628f55a4df523b3ef83604051611e0b91815260200190565b60405180910390a3505050565b6000606060008311611e925760405162461bcd60e51b815260206004820152602660248201527f546f6b656e20616d6f756e74206d75737420626520677265617465722074686160448201527f6e207a65726f00000000000000000000000000000000000000000000000000006064820152608401610828565b60408051600280825260608201835290916020830190803683370190505090503081600081518110611ec657611ec6612760565b6001600160a01b03928316602091820292909201810191909152600e54604080516315ab88c960e31b81529051919093169263ad5c46489260048083019391928290030181865afa158015611f1f573d6000803e3d6000fd5b505050506040513d601f19601f82011682018060405250810190611f4391906126f8565b81600181518110611f5657611f56612760565b6001600160a01b039283166020918202929092010152600e546040517fd06ca61f000000000000000000000000000000000000000000000000000000008152600092919091169063d06ca61f90611fb39087908690600401612776565b600060405180830381865afa158015611fd0573d6000803e3d6000fd5b505050506040513d6000823e601f3d908101601f19168201604052611ff89190810190612797565b90508060018151811061200d5761200d612760565b6020026020010151925050915091565b60006a636f6e736f6c652e6c6f679050600080835160208501845afa505050565b600080600083516041036120785760208401516040850151606086015160001a61206a8882858561218f565b955095509550505050612084565b50508151600091506002905b9250925092565b600082600381111561209f5761209f61283d565b036120a8575050565b60018260038111156120bc576120bc61283d565b036120f3576040517ff645eedf00000000000000000000000000000000000000000000000000000000815260040160405180910390fd5b60028260038111156121075761210761283d565b03612141576040517ffce698f700000000000000000000000000000000000000000000000000000000815260048101829052602401610828565b60038260038111156121555761215561283d565b03610b11576040517fd78bce0c00000000000000000000000000000000000000000000000000000000815260048101829052602401610828565b600080807f7fffffffffffffffffffffffffffffff5d576e7357a4501ddfe92f46681b20a08411156121ca5750600091506003905082612254565b604080516000808252602082018084528a905260ff891692820192909252606081018790526080810186905260019060a0016020604051602081039080840390855afa15801561221e573d6000803e3d6000fd5b5050604051601f1901519150506001600160a01b03811661224a57506000925060019150829050612254565b9250600091508190505b9450945094915050565b6001600160a01b0381168114610cfc57600080fd5b6000806040838503121561228657600080fd5b82356122918161225e565b946020939093013593505050565b60005b838110156122ba5781810151838201526020016122a2565b50506000910152565b600081518084526122db81602086016020860161229f565b601f01601f19169290920160200192915050565b60208152600061230260208301846122c3565b9392505050565b60008060006060848603121561231e57600080fd5b83356123298161225e565b925060208401356123398161225e565b929592945050506040919091013590565b60006020828403121561235c57600080fd5b81356123028161225e565b6000806040838503121561237a57600080fd5b50508035926020909101359150565b634e487b7160e01b600052604160045260246000fd5b604051601f8201601f1916810167ffffffffffffffff811182821017156123c8576123c8612389565b604052919050565b600082601f8301126123e157600080fd5b813567ffffffffffffffff8111156123fb576123fb612389565b61240e601f8201601f191660200161239f565b81815284602083860101111561242357600080fd5b816020850160208301376000918101602001919091529392505050565b6000806040838503121561245357600080fd5b823567ffffffffffffffff8082111561246b57600080fd5b612477868387016123d0565b9350602085013591508082111561248d57600080fd5b5061249a858286016123d0565b9150509250929050565b8015158114610cfc57600080fd5b600080604083850312156124c557600080fd5b82356124d08161225e565b915060208301356124e0816124a4565b809150509250929050565b600080604083850312156124fe57600080fd5b82356125098161225e565b915060208301356124e08161225e565b600181811c9082168061252d57607f821691505b60208210810361254d57634e487b7160e01b600052602260045260246000fd5b50919050565b634e487b7160e01b600052601160045260246000fd5b808201808211156106e5576106e5612553565b60006001820161258e5761258e612553565b5060010190565b818103818111156106e5576106e5612553565b80820281158282048414176106e5576106e5612553565b6000826125dc57634e487b7160e01b600052601260045260246000fd5b500490565b6000602082840312156125f357600080fd5b5051919050565b6000806000806080858703121561261057600080fd5b845161261b8161225e565b60208601516040870151606090970151919890975090945092505050565b6000825161264b81846020870161229f565b9190910192915050565b60408152600061266860408301856122c3565b90508260208301529392505050565b60008151808452602080850194506020840160005b838110156126b15781516001600160a01b03168752958201959082019060010161268c565b509495945050505050565b85815284602082015260a0604082015260006126db60a0830186612677565b6001600160a01b0394909416606083015250608001529392505050565b60006020828403121561270a57600080fd5b81516123028161225e565b60006020828403121561272757600080fd5b8151612302816124a4565b60008060006060848603121561274757600080fd5b8351925060208401519150604084015190509250925092565b634e487b7160e01b600052603260045260246000fd5b82815260406020820152600061278f6040830184612677565b949350505050565b600060208083850312156127aa57600080fd5b825167ffffffffffffffff808211156127c257600080fd5b818501915085601f8301126127d657600080fd5b8151818111156127e8576127e8612389565b8060051b91506127f984830161239f565b818152918301840191848101908884111561281357600080fd5b938501935b8385101561283157845182529385019390850190612818565b98975050505050505050565b634e487b7160e01b600052602160045260246000fdfea2646970667358221220dc41be588f0eb523fa95b276fb8c862c3d4c8f52667f52c096f01f03507ac25a64736f6c63430008170033",
  "linkReferences": {},
  "deployedLinkReferences": {}
}